{
  "contractName": "SocialNetwork",
  "abi": [
    {
      "inputs": [],
      "payable": false,
      "stateMutability": "nonpayable",
      "type": "constructor"
    },
    {
      "constant": true,
      "inputs": [],
      "name": "name",
      "outputs": [
        {
          "internalType": "string",
          "name": "",
          "type": "string"
        }
      ],
      "payable": false,
      "stateMutability": "view",
      "type": "function"
    }
  ],
  "bytecode": "0x608060405234801561001057600080fd5b5060405180606001604052806022815260200161027f602291396000908051906020019061003f929190610045565b506100ea565b828054600181600116156101000203166002900490600052602060002090601f016020900481019282601f1061008657805160ff19168380011785556100b4565b828001600101855582156100b4579182015b828111156100b3578251825591602001919060010190610098565b5b5090506100c191906100c5565b5090565b6100e791905b808211156100e35760008160009055506001016100cb565b5090565b90565b610186806100f96000396000f3fe608060405234801561001057600080fd5b506004361061002b5760003560e01c806306fdde0314610030575b600080fd5b6100386100b3565b6040518080602001828103825283818151815260200191508051906020019080838360005b8381101561007857808201518184015260208101905061005d565b50505050905090810190601f1680156100a55780820380516001836020036101000a031916815260200191505b509250505060405180910390f35b60008054600181600116156101000203166002900480601f0160208091040260200160405190810160405280929190818152602001828054600181600116156101000203166002900480156101495780601f1061011e57610100808354040283529160200191610149565b820191906000526020600020905b81548152906001019060200180831161012c57829003601f168201915b50505050508156fea265627a7a72315820fc755fa50797b48517aae3f0e658ca03dce420bc5edb56f2eb65b723ad9f4f1a64736f6c634300050c003241776b776172646c7920536f6369616c2e2e2e2e536f6369616c204e6574776f726b",
  "source": "pragma solidity ^0.5.0;\n\ncontract SocialNetwork {\n    string public name;\n\n    constructor() public {\n        name = \"Awkwardly Social....Social Network\";\n    }\n}",
  "sourcePath": "/Users/jjosey/Dapps/awkwardly-social/src/contracts/SocialNetwork.sol",
  "compiler": {
    "name": "solc",
    "version": "0.5.12+commit.7709ece9.Emscripten.clang"
  },
  "schemaVersion": "3.0.19",
  "updatedAt": "2019-12-10T01:36:39.079Z",
  "networkType": "ethereum",
  "devdoc": {
    "methods": {}
  },
  "userdoc": {
    "methods": {}
  }
}